:020000040000fa
:080000000001040000000000f3
:020000040000fa
:100200000fa020000eff20000e018800000000005b
:100210000c000700c05c2000010020001f00070048
:10022000000020000000e000020032000000020098
:100230000000000084030200000000000040da001b
:100240000000fe004440a900c00320000000e000c0
:100250000300320000002000a00188004440a800f4
:1002600000000600f03fb1000180b100060035003b
:10027000ee03090000000000403fb1000180b10022
:10028000fbff3d001000b000203fb0000200350031
:1002900000800900000000000000060091018800b5
:1002a000800078000000eb0015003700e28040007d
:1002b00032a0b4009101ba00e280400032a0b40044
:1002c0009102ba00e280400032a0b4000002eb00cc
:1002d000472bde00f507b200602ce10004003a0075
:1002e0000059eb008301e900fdff3e0004003700e8
:1002f0006128e100010032000082eb0004000700e9
:100300001101ba000200e000e8ff3a000000060018
:100310003159ba008301e9000c0032002159ba00ba
:100320008301e900080032000400e00003003a0005
:10033000e280400032a0b400f5ff370011d9ba00c6
:100340008301e900faff3a008100e800e180400003
:1003500032a0b400000006000040da000000fe00f9
:020000040000fa
:0200000401f009
:04000000f6bf000047
:020000040000fa
:0200000401f009
:04000400ff7f00007a
:020000040000fa
:0200000401f009
:040008007fff000076
:020000040000fa
:0200000401f009
:04001400fdff0000ec
:020000040000fa
:10000800ac010000ac010000ac010000ac01000034
:10001800ac010000ac010000ac010000ac01000024
:10002800ac010000ac010000ac010000ac01000014
:10003800ac010000ac010000ac010000ac01000004
:10004800ac010000ac010000ac010000ac010000f4
:10005800ac010000ac010000ac010000ac010000e4
:10006800ac010000ac010000ac010000ac010000d4
:10007800ac010000ac010000ac010000ac010000c4
:10008800ac010000ac010000ac010000ac010000b4
:10009800ac010000ac010000ac010000ac010000a4
:1000a800ac010000ac010000ac010000ac01000094
:1000b800ac010000ac010000ac010000ac01000084
:1000c800ac010000ac010000ac010000ac01000074
:1000d800ac010000ac010000ac010000ac01000064
:1000e800ac010000ac010000ac010000ac01000054
:0800f800ac010000ac010000a6
:020000040000fa
:10010800ac010000ac010000ac010000ac01000033
:10011800ac010000ac010000ac010000ac01000023
:10012800ac010000ac010000ac010000ac01000013
:10013800ac010000ac010000ac010000ac01000003
:10014800ac010000ac010000ac010000ac010000f3
:10015800ac010000ac010000ac010000ac010000e3
:10016800ac010000ac010000ac010000ac010000d3
:10017800ac010000ac010000ac010000ac010000c3
:10018800ac010000ac010000ac010000ac010000b3
:10019800ac010000ac010000ac010000ac010000a3
:1001a800ac010000ac010000ac010000ac01000093
:1001b800ac010000ac010000ac010000ac01000083
:1001c800ac010000ac010000ac010000ac01000073
:1001d800ac010000ac010000ac010000ac01000063
:1001e800ac010000ac010000ac010000ac01000053
:0801f800ac010000ac010000a5
:020000040000fa
:1003600020200000202000002043000079740000bd
:10037000726f00006e0a000020200000546500002b
:10038000636800006e6f00006c6f0000676900001a
:1003900065730000002000002020000020530000b2
:1003a00043310000364100000a20000020640000b4
:1003b0007350000049430000333000004634000011
:1003c0003031000031000000736500006e640000f1
:0803d000696e000067000000e7
:020000040000fa
:1003d8000000fa0010c0b300a8000700f0002000d9
:1003e800d901070081c3b3000040eb008e0007006d
:1003f80061c0b3000040eb008b000700c1c0b30030
:100408000040eb0088000700020007000080fa00a7
:10041800000006000000fa0011c0b3000040eb0025
:10042800810007000080fa00000006000000fa00c2
:1004380021c0b3000040eb007b0007000080fa00f9
:10044800000006000000fa0001ccb3000040eb00f9
:10045800750007000080fa00000006000200fa009c
:10046800004f780000c8b3009e4070000040eb00c9
:100478006d0007000080fa00000006000200fa0084
:10048800004f78009e40780010c0b3006600070057
:100498000080fa00000006000200fa00000f780051
:1004a8000e0037001e00780010407800ea4f500018
:1004b800040032001e00780010407800ed4f500014
:1004c80002003a00dfff0700030037001e00780033
:1004d80010407800e9ff07001e0fe8001e007800b2
:1004e800104078000004e000eeff3a000080fa00b7
:1004f800000006000e00fa00204f980061079800df
:100508000e0178006000b8000089be006401410057
:100518006000b8000089be00640141000000eb00e3
:10052800000978006e009000027122001100090095
:100538000280d800400798006e00900002712200e7
:10054800110009000280d8008000fd0030079800e3
:100558003e009000823e2000110009000280d80071
:100568008000fd00200798003e009000823e200099
:10057800110009000280d800300798002e00900072
:1005880042062000110009000280d8008000fd000a
:10059800100798002e009000420620001100090064
:1005a8000280d800200798001e009000a2002000ba
:1005b800110009000280d8008000fd00000f7800bb
:1005c8001e009000a2002000110009000280d8003f
:1005d800100798002e489000e54f50000d00360097
:1005e80050c0b300204f98000a0037002e489000f2
:1005f8000080fb000000e9000000400060007f0070
:100608000043b0009dff07002e4890000040e9001d
:10061800204f98002e4890000004e000f3ff3a00b5
:100628000080fa00000006000200fa00004f78007f
:10063800114798001e4078001e0007001e409000d9
:100648002900070010c0b3000c00070010002000ac
:100658003d0107000040eb000800070020002000d3
:10066800390107000040eb00120007000040eb00d2
:100678001d0007000080fa00000006000200fa00d2
:10068800004f78009e40780061c0600061406000c3
:1006980000414000012e200091407800d0cfb300e7
:1006a80000c0600002407000e0e2b7000080fa007d
:1006b800000006000200fa00004f78009e40780013
:1006c80061c0600061416000012e20009140780007
:1006d800e0cfb30000c0600002407000e0e2b70065
:1006e8000080fa00000006000200fa00004f7800bf
:1006f8001e80fb00401688000080fa0000000600fb
:100708000000fa000000eb00501688000000eb0023
:10071800801688000000eb00b01688000000eb008f
:10072800e01688000000eb00101788000000eb00be
:10073800301688000000eb00601688000000eb000f
:1007480090168800d202a8000000eb00c0168800ae
:10075800d902a8000000eb00f0168800800c2000e9
:10076800f90007001aff07002aff0700001b2800ee
:1007780049ff0700c05d2000f300070025ff0700c0
:10078800b01c280044ff0700c05d2000ee000700f1
:10079800d642a900d662a90000003700dbc2bf001c
:1007a800614060000004e000fcff3a00010007001f
:1007b800faff37000200fa000040eb0010479800eb
:1007c8000040eb00004f7800dbc2bf0061406000d2
:1007d8000004e000350032005c0007000dff070050
:1007e800401e28002cff070000c4b30010479800e3
:1007f8000700370022032000810c20001e409000d3
:100808002c0007001e4090000040e80010479800a8
:100818009e40900000c5b30080cf5000f5ff360021
:100828000040eb00004f78000400370080fc2a00ed
:1008380001002000380007001e4fe800f0c4b30094
:100848009e4f1000f9ff360000c4b300104798000f
:100858000700370022032000014b20001e409000b3
:10086800140007001e4090000040e8001047980060
:100878009e40900000c5b30080cf5000f5ff3600c1
:100888000040eb00004f78000400370080fc2a008d
:1008980001002000200007001e4fe800f0c4b3004c
:1008a8009e4f1000f9ff3600cfff37000080fa0096
:1008b800000006000800fa00204798002107980069
:1008c800320798000040eb00104798000040eb000a
:1008d800004f78002e0090004600de00f043b20082
:1008e800104798002e009000f1c3b300014f60003c
:1008f8002e409000520007001e4090005000070054
:100908001e4078004e0007003e0090004c00070093
:100918000080fa00000006000400fa00008fbe0004
:10092800040037000080eb008080eb001e0f4000c1
:100938005e9748001e00be00e00f5000e08f580090
:10094800f8ff3a000080fa00000006000000fa00f4
:1009580010082000a01088000d42a9000ec2bf0098
:10096800f043b2000ee2b700810920009140780000
:10097800f0c8b30000c0600001c4b30001407000bb
:1009880098e0b7000e22a9008520a9008d20a900b3
:100998000de2a8000f42a8000080fa00000006003f
:1009a8000000fa0010082000a01088000d42a800de
:1009b8000ec2bf00f043b2000ee2b700810920006a
:1009c80091407800f0c8b30000c0600001c4b300d3
:1009d8000140700098e0b7000e22a9008520a90008
:1009e8008d20a9000de2a8000f42a8000080fa009f
:1009f800000006000000fa0010082000f01088002f
:100a080018c2bf00f043b20018e2b700010a200084
:100a18009140780080cfb30000c060005040b30020
:100a2800a0e0b7001822a9008700a9008f00a9003c
:100a380017e2a8001942a8000080fa00000006008a
:100a48000200fa00004f78000fc2bf006240600049
:100a58000004e000fcff3a001e80fb0080108800c4
:100a68000080fa00000006000200fa00004f78003b
:100a780019c2bf00624060000004e000fcff3a00b9
:100a88001e80fb00d01088000080fa0000000600dd
:100a98000000fa000ec2bf00614060000004e000e0
:100aa800fcff32000e22a900901080000080fb009d
:100ab8000080fa00000006000000fa0018c2bf001b
:100ac800614060000004e000fcff32001822a90029
:100ad800e01080000080fb000080fa0000000600a3
:100ae8000200fa00000f7800040037001e007800aa
:100af80010407800d2ff07001e0fe8001e007800a3
:100b0800104078000004e000f8ff3a000080fa0086
:100b1800000006000200fa00000f78000400370009
:100b28001e00780010407800cfff07001e0fe80075
:100b38001e007800104078000004e000f8ff3a003a
:100b48000080fa00000006000200fa00000f78009a
:100b58001e0078006103b8008600780000e22400d7
:100b68000009b8006030b9000302780000024200b2
:100b780000e2240000b8b9000002420084017800b5
:100b88000200be00b5fd07000080fa000000060064
:020000040000fa
:040b98000000000059
:00000001FF
